{
  "contractName": "OurTube",
  "abi": [
    {
      "inputs": [],
      "stateMutability": "nonpayable",
      "type": "constructor"
    },
    {
      "anonymous": false,
      "inputs": [
        {
          "indexed": false,
          "internalType": "uint256",
          "name": "id",
          "type": "uint256"
        },
        {
          "indexed": false,
          "internalType": "string",
          "name": "hash",
          "type": "string"
        },
        {
          "indexed": false,
          "internalType": "string",
          "name": "title",
          "type": "string"
        },
        {
          "indexed": false,
          "internalType": "string",
          "name": "description",
          "type": "string"
        },
        {
          "indexed": false,
          "internalType": "string",
          "name": "location",
          "type": "string"
        },
        {
          "indexed": false,
          "internalType": "string",
          "name": "category",
          "type": "string"
        },
        {
          "indexed": false,
          "internalType": "string",
          "name": "thumbnailHash",
          "type": "string"
        },
        {
          "indexed": false,
          "internalType": "bool",
          "name": "isAudio",
          "type": "bool"
        },
        {
          "indexed": false,
          "internalType": "string",
          "name": "date",
          "type": "string"
        },
        {
          "indexed": false,
          "internalType": "address",
          "name": "author",
          "type": "address"
        }
      ],
      "name": "VideoUploaded",
      "type": "event"
    },
    {
      "inputs": [],
      "name": "name",
      "outputs": [
        {
          "internalType": "string",
          "name": "",
          "type": "string"
        }
      ],
      "stateMutability": "view",
      "type": "function",
      "constant": true
    },
    {
      "inputs": [],
      "name": "videoCount",
      "outputs": [
        {
          "internalType": "uint256",
          "name": "",
          "type": "uint256"
        }
      ],
      "stateMutability": "view",
      "type": "function",
      "constant": true
    },
    {
      "inputs": [
        {
          "internalType": "uint256",
          "name": "",
          "type": "uint256"
        }
      ],
      "name": "videos",
      "outputs": [
        {
          "internalType": "uint256",
          "name": "id",
          "type": "uint256"
        },
        {
          "internalType": "string",
          "name": "hash",
          "type": "string"
        },
        {
          "internalType": "string",
          "name": "title",
          "type": "string"
        },
        {
          "internalType": "string",
          "name": "description",
          "type": "string"
        },
        {
          "internalType": "string",
          "name": "location",
          "type": "string"
        },
        {
          "internalType": "string",
          "name": "category",
          "type": "string"
        },
        {
          "internalType": "string",
          "name": "thumbnailHash",
          "type": "string"
        },
        {
          "internalType": "bool",
          "name": "isAudio",
          "type": "bool"
        },
        {
          "internalType": "string",
          "name": "date",
          "type": "string"
        },
        {
          "internalType": "address",
          "name": "author",
          "type": "address"
        }
      ],
      "stateMutability": "view",
      "type": "function",
      "constant": true
    },
    {
      "inputs": [
        {
          "internalType": "string",
          "name": "_videoHash",
          "type": "string"
        },
        {
          "internalType": "string",
          "name": "_title",
          "type": "string"
        },
        {
          "internalType": "string",
          "name": "_description",
          "type": "string"
        },
        {
          "internalType": "string",
          "name": "_location",
          "type": "string"
        },
        {
          "internalType": "string",
          "name": "_category",
          "type": "string"
        },
        {
          "internalType": "string",
          "name": "_thumbnailHash",
          "type": "string"
        },
        {
          "internalType": "bool",
          "name": "_isAudio",
          "type": "bool"
        },
        {
          "internalType": "string",
          "name": "_date",
          "type": "string"
        }
      ],
      "name": "uploadVideo",
      "outputs": [],
      "stateMutability": "nonpayable",
      "type": "function"
    }
  ],
  "bytecode": "0x6080604052600080556040518060400160405280601081526020017f4f75725475626520436f6e747261637400000000000000000000000000000000815250600190816200004e9190620002dd565b503480156200005c57600080fd5b50620003c4565b600081519050919050565b7f4e487b7100000000000000000000000000000000000000000000000000000000600052604160045260246000fd5b7f4e487b7100000000000000000000000000000000000000000000000000000000600052602260045260246000fd5b60006002820490506001821680620000e557607f821691505b602082108103620000fb57620000fa6200009d565b5b50919050565b60008190508160005260206000209050919050565b60006020601f8301049050919050565b600082821b905092915050565b600060088302620001657fffffffffffffffffffffffffffffffffffffffffffffffffffffffffffffffff8262000126565b62000171868362000126565b95508019841693508086168417925050509392505050565b6000819050919050565b6000819050919050565b6000620001be620001b8620001b28462000189565b62000193565b62000189565b9050919050565b6000819050919050565b620001da836200019d565b620001f2620001e982620001c5565b84845462000133565b825550505050565b600090565b62000209620001fa565b62000216818484620001cf565b505050565b5b818110156200023e5762000232600082620001ff565b6001810190506200021c565b5050565b601f8211156200028d57620002578162000101565b620002628462000116565b8101602085101562000272578190505b6200028a620002818562000116565b8301826200021b565b50505b505050565b600082821c905092915050565b6000620002b26000198460080262000292565b1980831691505092915050565b6000620002cd83836200029f565b9150826002028217905092915050565b620002e88262000063565b67ffffffffffffffff8111156200030457620003036200006e565b5b620003108254620000cc565b6200031d82828562000242565b600060209050601f83116001811462000355576000841562000340578287015190505b6200034c8582620002bf565b865550620003bc565b601f198416620003658662000101565b60005b828110156200038f5784890151825560018201915060208501945060208101905062000368565b86831015620003af5784890151620003ab601f8916826200029f565b8355505b6001600288020188555050505b505050505050565b6110d680620003d46000396000f3fe608060405234801561001057600080fd5b506004361061004c5760003560e01c806306fdde0314610051578063b20f24bf1461006f578063c61b5f4c1461008b578063e6821bf5146100a9575b600080fd5b6100596100e2565b6040516100669190610884565b60405180910390f35b61008960048036038101906100849190610a27565b610170565b005b6100936103b5565b6040516100a09190610bba565b60405180910390f35b6100c360048036038101906100be9190610c01565b6103bb565b6040516100d99a99989796959493929190610c7e565b60405180910390f35b600180546100ef90610d7a565b80601f016020809104026020016040519081016040528092919081815260200182805461011b90610d7a565b80156101685780601f1061013d57610100808354040283529160200191610168565b820191906000526020600020905b81548152906001019060200180831161014b57829003601f168201915b505050505081565b600088511161017e57600080fd5b600087511161018c57600080fd5b600073ffffffffffffffffffffffffffffffffffffffff163373ffffffffffffffffffffffffffffffffffffffff16036101c557600080fd5b6000808154809291906101d790610dda565b9190505550604051806101400160405280600054815260200189815260200188815260200187815260200186815260200185815260200184815260200183151581526020018281526020013373ffffffffffffffffffffffffffffffffffffffff16815250600260008054815260200190815260200160002060008201518160000155602082015181600101908161026f9190610fce565b5060408201518160020190816102859190610fce565b50606082015181600301908161029b9190610fce565b5060808201518160040190816102b19190610fce565b5060a08201518160050190816102c79190610fce565b5060c08201518160060190816102dd9190610fce565b5060e08201518160070160006101000a81548160ff0219169083151502179055506101008201518160080190816103149190610fce565b506101208201518160090160006101000a81548173ffffffffffffffffffffffffffffffffffffffff021916908373ffffffffffffffffffffffffffffffffffffffff1602179055509050507f59b01d7253e58066e08807923c0472b8bca64305f2cb0443a998c4c6f7ca8a016000548989898989898989336040516103a39a99989796959493929190610c7e565b60405180910390a15050505050505050565b60005481565b60026020528060005260406000206000915090508060000154908060010180546103e490610d7a565b80601f016020809104026020016040519081016040528092919081815260200182805461041090610d7a565b801561045d5780601f106104325761010080835404028352916020019161045d565b820191906000526020600020905b81548152906001019060200180831161044057829003601f168201915b50505050509080600201805461047290610d7a565b80601f016020809104026020016040519081016040528092919081815260200182805461049e90610d7a565b80156104eb5780601f106104c0576101008083540402835291602001916104eb565b820191906000526020600020905b8154815290600101906020018083116104ce57829003601f168201915b50505050509080600301805461050090610d7a565b80601f016020809104026020016040519081016040528092919081815260200182805461052c90610d7a565b80156105795780601f1061054e57610100808354040283529160200191610579565b820191906000526020600020905b81548152906001019060200180831161055c57829003601f168201915b50505050509080600401805461058e90610d7a565b80601f01602080910402602001604051908101604052809291908181526020018280546105ba90610d7a565b80156106075780601f106105dc57610100808354040283529160200191610607565b820191906000526020600020905b8154815290600101906020018083116105ea57829003601f168201915b50505050509080600501805461061c90610d7a565b80601f016020809104026020016040519081016040528092919081815260200182805461064890610d7a565b80156106955780601f1061066a57610100808354040283529160200191610695565b820191906000526020600020905b81548152906001019060200180831161067857829003601f168201915b5050505050908060060180546106aa90610d7a565b80601f01602080910402602001604051908101604052809291908181526020018280546106d690610d7a565b80156107235780601f106106f857610100808354040283529160200191610723565b820191906000526020600020905b81548152906001019060200180831161070657829003601f168201915b5050505050908060070160009054906101000a900460ff169080600801805461074b90610d7a565b80601f016020809104026020016040519081016040528092919081815260200182805461077790610d7a565b80156107c45780601f10610799576101008083540402835291602001916107c4565b820191906000526020600020905b8154815290600101906020018083116107a757829003601f168201915b5050505050908060090160009054906101000a900473ffffffffffffffffffffffffffffffffffffffff1690508a565b600081519050919050565b600082825260208201905092915050565b60005b8381101561082e578082015181840152602081019050610813565b60008484015250505050565b6000601f19601f8301169050919050565b6000610856826107f4565b61086081856107ff565b9350610870818560208601610810565b6108798161083a565b840191505092915050565b6000602082019050818103600083015261089e818461084b565b905092915050565b6000604051905090565b600080fd5b600080fd5b600080fd5b600080fd5b7f4e487b7100000000000000000000000000000000000000000000000000000000600052604160045260246000fd5b6108fc8261083a565b810181811067ffffffffffffffff8211171561091b5761091a6108c4565b5b80604052505050565b600061092e6108a6565b905061093a82826108f3565b919050565b600067ffffffffffffffff82111561095a576109596108c4565b5b6109638261083a565b9050602081019050919050565b82818337600083830152505050565b600061099261098d8461093f565b610924565b9050828152602081018484840111156109ae576109ad6108bf565b5b6109b9848285610970565b509392505050565b600082601f8301126109d6576109d56108ba565b5b81356109e684826020860161097f565b91505092915050565b60008115159050919050565b610a04816109ef565b8114610a0f57600080fd5b50565b600081359050610a21816109fb565b92915050565b600080600080600080600080610100898b031215610a4857610a476108b0565b5b600089013567ffffffffffffffff811115610a6657610a656108b5565b5b610a728b828c016109c1565b985050602089013567ffffffffffffffff811115610a9357610a926108b5565b5b610a9f8b828c016109c1565b975050604089013567ffffffffffffffff811115610ac057610abf6108b5565b5b610acc8b828c016109c1565b965050606089013567ffffffffffffffff811115610aed57610aec6108b5565b5b610af98b828c016109c1565b955050608089013567ffffffffffffffff811115610b1a57610b196108b5565b5b610b268b828c016109c1565b94505060a089013567ffffffffffffffff811115610b4757610b466108b5565b5b610b538b828c016109c1565b93505060c0610b648b828c01610a12565b92505060e089013567ffffffffffffffff811115610b8557610b846108b5565b5b610b918b828c016109c1565b9150509295985092959890939650565b6000819050919050565b610bb481610ba1565b82525050565b6000602082019050610bcf6000830184610bab565b92915050565b610bde81610ba1565b8114610be957600080fd5b50565b600081359050610bfb81610bd5565b92915050565b600060208284031215610c1757610c166108b0565b5b6000610c2584828501610bec565b91505092915050565b610c37816109ef565b82525050565b600073ffffffffffffffffffffffffffffffffffffffff82169050919050565b6000610c6882610c3d565b9050919050565b610c7881610c5d565b82525050565b600061014082019050610c94600083018d610bab565b8181036020830152610ca6818c61084b565b90508181036040830152610cba818b61084b565b90508181036060830152610cce818a61084b565b90508181036080830152610ce2818961084b565b905081810360a0830152610cf6818861084b565b905081810360c0830152610d0a818761084b565b9050610d1960e0830186610c2e565b818103610100830152610d2c818561084b565b9050610d3c610120830184610c6f565b9b9a5050505050505050505050565b7f4e487b7100000000000000000000000000000000000000000000000000000000600052602260045260246000fd5b60006002820490506001821680610d9257607f821691505b602082108103610da557610da4610d4b565b5b50919050565b7f4e487b7100000000000000000000000000000000000000000000000000000000600052601160045260246000fd5b6000610de582610ba1565b91507fffffffffffffffffffffffffffffffffffffffffffffffffffffffffffffffff8203610e1757610e16610dab565b5b600182019050919050565b60008190508160005260206000209050919050565b60006020601f8301049050919050565b600082821b905092915050565b600060088302610e847fffffffffffffffffffffffffffffffffffffffffffffffffffffffffffffffff82610e47565b610e8e8683610e47565b95508019841693508086168417925050509392505050565b6000819050919050565b6000610ecb610ec6610ec184610ba1565b610ea6565b610ba1565b9050919050565b6000819050919050565b610ee583610eb0565b610ef9610ef182610ed2565b848454610e54565b825550505050565b600090565b610f0e610f01565b610f19818484610edc565b505050565b5b81811015610f3d57610f32600082610f06565b600181019050610f1f565b5050565b601f821115610f8257610f5381610e22565b610f5c84610e37565b81016020851015610f6b578190505b610f7f610f7785610e37565b830182610f1e565b50505b505050565b600082821c905092915050565b6000610fa560001984600802610f87565b1980831691505092915050565b6000610fbe8383610f94565b9150826002028217905092915050565b610fd7826107f4565b67ffffffffffffffff811115610ff057610fef6108c4565b5b610ffa8254610d7a565b611005828285610f41565b600060209050601f8311600181146110385760008415611026578287015190505b6110308582610fb2565b865550611098565b601f19841661104686610e22565b60005b8281101561106e57848901518255600182019150602085019450602081019050611049565b8683101561108b5784890151611087601f891682610f94565b8355505b6001600288020188555050505b50505050505056fea264697066735822122096c9f9e36928bf0637a65295a946de7de59e4bfcfb0b7a3f4b7c7a2c6111cdeb64736f6c63430008110033",
  "immutableReferences": {},
  "source": "//SPDX-License-Identifier: Unlicense\r\npragma solidity ^0.8.0;\r\n\r\nimport \"hardhat/console.sol\";\r\n\r\ncontract OurTube {\r\n    uint256 public videoCount = 0;\r\n    string public name = \"OurTube Contract\";\r\n    mapping(uint256 => Video) public videos;\r\n\r\n    struct Video {\r\n        uint256 id;\r\n        string hash;\r\n        string title;\r\n        string description;\r\n        string location;\r\n        string category;\r\n        string thumbnailHash;\r\n        bool isAudio;\r\n        string date;\r\n        address author;\r\n    }\r\n\r\n    event VideoUploaded(\r\n        uint256 id,\r\n        string hash,\r\n        string title,\r\n        string description,\r\n        string location,\r\n        string category,\r\n        string thumbnailHash,\r\n        bool isAudio,\r\n        string date,\r\n        address author\r\n    );\r\n\r\n    constructor() {\r\n        \r\n    }\r\n\r\n    function uploadVideo(\r\n        string memory _videoHash,\r\n        string memory _title,\r\n        string memory _description,\r\n        string memory _location,\r\n        string memory _category,\r\n        string memory _thumbnailHash,\r\n        bool _isAudio,\r\n        string memory _date\r\n    ) public {\r\n        // Validating\r\n        require(bytes(_videoHash).length > 0);\r\n        require(bytes(_title).length > 0);\r\n        require(msg.sender != address(0));\r\n\r\n        videoCount++;\r\n        videos[videoCount] = Video(\r\n            videoCount,\r\n            _videoHash,\r\n            _title,\r\n            _description,\r\n            _location,\r\n            _category,\r\n            _thumbnailHash,\r\n            _isAudio,\r\n            _date,\r\n            msg.sender\r\n        );\r\n        emit VideoUploaded(\r\n            videoCount,\r\n            _videoHash,\r\n            _title,\r\n            _description,\r\n            _location,\r\n            _category,\r\n            _thumbnailHash,\r\n            _isAudio,\r\n            _date,\r\n            msg.sender\r\n        );\r\n    }\r\n}\r\n",
  "sourcePath": "D:\\SPIT_Ideal_bits\\contracts\\OurTube.sol",
  "compiler": {
    "name": "solc",
    "version": "0.8.17+commit.8df45f5f.Emscripten.clang"
  },
  "schemaVersion": "3.4.11",
  "updatedAt": "2023-02-04T14:51:43.644Z",
  "networkType": "ethereum",
  "devdoc": {
    "kind": "dev",
    "methods": {},
    "version": 1
  },
  "userdoc": {
    "kind": "user",
    "methods": {},
    "version": 1
  }
}